:101BCE0057414954494E470048656C6C6F204C3163
:101BDE004D4F4A0041637469766174656421003724
:101BEE002E36200055534552005355524600424F53
:091BFE004459002121212121009C
:101B9400C108203026000000000000000000000002
:101BA4000000000000000000000000000000000031
:101BB4000000000000000000000000000000000021
:091BC4000000000000025800219D
:101DC000758920758DFD758BFDC29FD29ED29CD2E8
:061DD0008ED2AFD2AC225E
:101E1800EF1FAC0670011E4C600A7D027C8BDCFE55
:041E2800DDFC80EC71
:011E2C002293
:101D7600D2A0E4F55AC2A17F017E00121E18D2A19C
:0A1D8600055AE55AD3946440EC229C
:10087E00750801E4F509121DC0C2A1121E2D121633
:10088E0051121C617BFF7A1B79CEE4FDFF121CD83E
:10089E007BFF7A1B79D67D047F02121CD87BFF7AF0
:1008AE001B79D67513087D327F14121B177F147EA9
:1008BE0000121D1D7F0A7E00121D1D121C617B146D
:1008CE007D1E7F2B1217EB7514007515157B5D7A47
:1008DE00007D0A7C007F2B7E001211297F0A7E008C
:1008EE00121D1D7514007515277B5D7A007D327CF7
:1008FE00007F2B7E0012112975110075121E7B1EB2
:10090E007D557F411218997B0A7D1E7F5D1217EB74
:10091E007F0A7E00121D1D7BFF7A1B79E27513087C
:10092E007D327F14121B177F147E00121D1D121CA8
:10093E0061121E2DC2A120870A0508E508B4030323
:10094E0075080120A3170559E55970020558D3946F
:10095E0024E5589400400675580075592120A40CC2
:10096E000509E509D3940B4003E4F509121AB98F72
:10097E00258E248D238C227BFF7A1B79ED7D077FBC
:10098E0001121CD87BFF7A1B79F27D017F02121CAB
:10099E00D8751201E4FBFA7D057F02121B57E5099B
:1009AE00FB7A007512027D0F7F01121B5775120222
:1009BE00AB59AA587D0F7F02121B57E508B4010DE3
:1009CE007BFF7A1B79F77D017F01121CD8E508B4F5
:1009DE0002337FDE7E027D897C3EAB25AA24A923CD
:1009EE00A822120DEC7B007A90792B7845120CFB25
:1009FE008F258E248D238C227BFF7A1B79FC7D0123
:100A0E007F01121CD8E4FBFA79C87842AF25AE24D8
:100A1E00AD23AC22120EF5120FD08E0A8F0B7C0076
:100A2E007D6412107EAC06AD07EC120F97A804A9D8
:100A3E0005AA06AB07AF25AE24AD23AC22120CF7E8
:100A4E00120FD08E0C8F0D751202AB0BAA0A7D07FA
:100A5E007F02121B57751202AB0DAA0C7D0A7F0284
:100A6E00121B577B2E7D097F02121E90803A20A208
:100A7E0040E50925E025E02426F8A60A08A60BE5A0
:100A8E000925E025E02428F8A60C08A60DC3E50BE1
:100A9E009559E50A955840D6121D767BFF7A1C793A
:100AAE00017D077F02121CD87F0A7E00121D1D8059
:100ABE00BDC2A07B437D0C7F02121E907512027583
:100ACE001310AB27AA26E4FDFF121A3F751A107BEE
:100ADE002EE4FD7F1012172D751202751310AB291F
:100AEE00AA28E4FD7F12121A3F751202751310AB7D
:100AFE002BAA2AE4FD7F28121A3F751A107B2EE4CA
:100B0E00FD7F3812172D751202751310AB2DAA2CFE
:100B1E00E4FD7F3A121A3F751202751310AB2FAA1D
:100B2E002EE4FD7F50121A3F751A107B2EE4FD7FC6
:100B3E006012172D751202751310AB31AA30E4FD39
:100B4E007F62121A3F751202751310AB33AA327DF3
:100B5E0002E4FF121A3F751A107B2E7D027F1012CF
:100B6E00172D751202751310AB35AA347D027F1244
:100B7E00121A3F751202751310AB37AA367D027F1B
:100B8E0028121A3F751A107B2E7D027F3812172DF0
:100B9E00751202751310AB39AA387D027F3A121AFC
:100BAE003F751202751310AB3BAA3A7D027F5012AD
:100BBE001A3F751A107B2E7D027F6012172D75124B
:100BCE0002751310AB3DAA3C7D027F62121A3F756F
:100BDE001202751310AB3FAA3E7D04E4FF121A3FBA
:100BEE00751A107B2E7D047F1012172D751202754B
:100BFE001310AB41AA407D047F12121A3F751202E8
:100C0E00751310AB43AA427D047F28121A3F751A42
:100C1E00107B2E7D047F3812172D7512027513105E
:100C2E00AB45AA447D047F3A121A3F751202751322
:100C3E0010AB47AA467D047F50121A3F751A107BDF
:100C4E002E7D047F6012172D751202751310AB499D
:100C5E00AA487D047F62121A3F751202751310ABFB
:100C6E004BAA4A7D06E4FF121A3F751A107B2E7DA1
:100C7E00067F1012172D751202751310AB4DAA4C6C
:100C8E007D067F12121A3F751202751310AB4FAA12
:100C9E004E7D067F28121A3F751A107B2E7D067F19
:100CAE003812172D751202751310AB51AA507D060E
:100CBE007F3A121A3F751202751310AB53AA527D6A
:100CCE00067F50121A3F751A107B2E7D067F60121A
:100CDE00172D751202751310AB55AA547D067F623F
:060CEE00121A3F02094248
:030023000214F3D1
:1014F300C0E0C0D075D000C007AF997556008F57B4
:10150300C298E557455670138527993099FDC299BE
:101513008529993099FDC29902164AE55764014518
:10152300567013852B993099FDC299852D99309961
:10153300FDC29902164AE557640245567013852F7A
:10154300993099FDC2998531993099FDC299021656
:101553004AE5576403455670138533993099FDC2A4
:10156300998535993099FDC29902164AE557640465
:10157300455670138537993099FDC299853999304D
:1015830099FDC29902164AE55764054556701385BD
:101593003B993099FDC299853D993099FDC29902D5
:1015A300164AE557640645567013853F993099FDF1
:1015B300C2998541993099FDC29902164AE557644B
:1015C30007455670128543993099FDC2998545990F
:1015D3003099FDC2998070E55764084556701285AD
:1015E30047993099FDC2998549993099FDC29980EF
:1015F30056E557640945567012854B993099FDC2DB
:1016030099854D993099FDC299803CE557640A4507
:10161300567012854F993099FDC299855199309929
:10162300FDC2998022E557640B4556701285539984
:101633003099FDC2998555993099FDC299800885E5
:0E16430057993099FDC299D007D0D0D0E0322F
:100026000000000000000000002F00000000070094
:10003600070000147F147F1400242A7F2A1200620E
:1000460064081323003649552250000005030000BA
:1000560000001C224100000041221C000014083E42
:1000660008140008083E0808000000A06000000808
:10007600080808080000606000000020100804025C
:10008600003E5149453E0000427F4000004261511A
:100096004946002141454B31001814127F100027B4
:1000A60045454539003C4A49493000017109050377
:1000B60000364949493600064949291E00003636A8
:1000C600000000005636000000081422410000140B
:1000D60014141414000041221408000201510906E8
:1000E60000324959513E007C1211127C007F494969
:1000F6004936003E41414122007F4141221C007F9A
:1001060049494941007F09090901003E4149497AA7
:10011600007F0808087F0000417F41000020404121
:100126003F01007F08142241007F40404040007F8D
:10013600020C027F007F0408107F003E4141413ED1
:10014600007F09090906003E4151215E007F091919
:1001560029460046494949310001017F0101003F16
:100166004040403F001F2040201F003F4038403F96
:1001760000631408146300070870080700615149FA
:10018600454300007F41410000552A552A5500008D
:1001960041417F000004020102040040404040400B
:1001A600000001020400002054545478007F4844A3
:1001B600443800384444442000384444487F0038DA
:1001C6005454541800087E0901020018A4A4A47C03
:1001D600007F080404780000447D400000408084CD
:1001E6007D00007F102844000000417F4000007C15
:1001F60004180478007C0804047800384444443821
:1002060000FC242424180018242418FC007C08046C
:10021600040800485454542000043F444020003C45
:100226004040207C001C2040201C003C4030403CCC
:10023600004428102844001CA0A0A07C004464545C
:100246004C441414141414140000000000000000A0
:100256000000000000000000000000F800000000A0
:10026600000000333000000000100C06100C0600E1
:10027600000000000000000040C07840C078400048
:10028600043F04043F040400007088FC08300000AA
:10029600001820FF211E0000F008F000E018000002
:1002A60000211C031E211E0000F0088870000000BB
:1002B6001E2123241927211010160E00000000000D
:1002C6000000000000000000000000E0180402002A
:1002D600000000071820400000020418E00000009B
:1002E6000040201807000000404080F08040400099
:1002F6000202010F01020200000000F000000000EF
:100306000101011F010101000000000000000000C2
:1003160080B0700000000000000000000000000037
:1003260000010101010101010000000000000000C0
:10033600003030000000000000000000806018045B
:10034600006018060100000000E010080810E00038
:10035600000F102020100F00001010F80000000001
:100366000020203F20200000007008080888700048
:1003760000302824222130000030088888483000C8
:100386000018202020110E000000C02010F80000E8
:1003960000070424243F240000F808888808080081
:1003A6000019212020110E0000E010888818000096
:1003B600000F112020110E0000380808C838080068
:1003C6000000003F000000000070880808887000E8
:1003D600001C222121221C0000E010080810E00069
:1003E6000000312222110F00000000C0C0000000F2
:1003F6000000003030000000000000800000000017
:10040600000080600000000000008040201008000E
:1004160000010204081020004040404040404000D7
:1004260004040404040404000008102040800000B2
:100436000020100804020100007048080808F000B7
:100446000000003036010000C030C828E810E00087
:100456000718272423140B000000C038E000000012
:10046600203C23020227382008F88888887000007C
:10047600203F202020110E00C03008080808380050
:10048600071820202010080008F808080810E000C7
:10049600203F202020100F0008F88888E808100068
:1004A600203F20202320180008F88888E80810003C
:1004B600203F200003000000C03008080838000074
:1004C60007182020221E020008F808000008F80875
:1004D600203F210101213F20000808F808080000FC
:1004E6000020203F2020000000000808F80808002F
:1004F600C08080807F00000008F888C028180800A7
:10050600203F20012638200008F8080000000000DF
:10051600203F20202020300008F8F800F8F80800D6
:10052600203F003F003F200008F830C00008F808D0
:10053600203F200007183F00E01008080810E000E0
:100546000F10202020100F0008F808080808F000F7
:10055600203F210101010000E01008080810E0001A
:100566000F18242438504F0008F8888888887000AF
:10057600203F2000030C302000708808080838004F
:100586000038202121221C00180808F80808180045
:100596000000203F2000000008F808000008F808C6
:1005A600001F202020201F000878880000C8380877
:1005B600000007380E010000F80800F80008F800EF
:1005C600033C0700073C0300081868808068180889
:1005D60020302C03032C30200838C800C838080007
:1005E6000000203F2000000010080808C838080056
:1005F6002038262120201800000000FE02020200FA
:100606000000007F40404000000C30C000000000A9
:10061600000000010638C00000020202FE000000D1
:10062600004040407F000000000004020202040077
:1006360000000000000000000000000000000000B4
:10064600808080808080808000020204000000009C
:100656000000000000000000000080808080000094
:100666000019242222223F2008F800808000000082
:10067600003F112020110E00000000808080000045
:10068600000E112020201100000000808088F80054
:10069600000E112020103F20000080808080000086
:1006A600001F222222221300008080F088888818EA
:1006B6000020203F202000000000808080808000F5
:1006C600006B94949493600008F80080808000008A
:1006D600203F210000203F20008098980000000065
:1006E6000020203F20200000000000809898000095
:1006F60000C08080807F000008F8000080808000B5
:10070600203F24022D302000000808F800000000D9
:100716000020203F20200000808080808080800094
:10072600203F20003F20003F808000808080000026
:10073600203F210000203F200000808080800000B4
:10074600001F202020201F008080008080000000E5
:1007560080FFA12020110E00000000808080800014
:10076600000E112020A0FF80808080008080800005
:1007760020203F2120000100000080808080800032
:100786000033242424241900008080E080800000A7
:100796000000001F202000008080000000808000F4
:1007A600001F202020103F20808080000080808055
:1007B60000010E30080601008080008000808080E5
:1007C6000F300C030C300F0000808000808080000A
:1007D6000020312E0E312000808080000080808035
:1007E60080818E70180601000080808080808000E5
:1007F6000021302C2221300000000000807C020203
:1008060000000000003F404000000000FF00000024
:1008160000000000FF0000000002027C80000000D3
:100826000040403F000000000006010102020404EF
:100836000000000000000000004042445840407F95
:1008460040405048C60000000000000000000000C4
:1008560000000000000000000040444444444444BA
:1008660044444444FF000000000000000000000073
:0808760000000000000000007A
:091E9A00D2B6D2B7C2B7C2B6221B
:071EA300D2B6C2B7D2B7228C
:0B1E4100121CB9121E4CAF04121CB999
:051E4C00D2B6C2B6226F
:071CB200AC07121E9A7F78B7
:101CB900C2B6E4FEAD07530580BD8004D2B78002E9
:0E1CC900C2B7EF25E0FFD2B6C2B60EBE08E6E7
:011CD70022EA
:0E1E6000121CB2121E4CE4FF121E41021EA301
:0E1E6E00121CB2121E4C7F40121E41021EA317
:101CFB00121D0CE4FDFCFFFE121D0C7F10E4FDFC1D
:011D0B00FED9
:101D0C00AB07AA06ED4C6003021E6EAF03121E60F9
:011D1C0022A4
:041899008F0E8D0F12
:10189D00EB5407FF700DEB131313541FF513751451
:1018AD00018053EB131313541FF513EF14B40700FA
:1018BD0050449018CD75F003A4C58325F0C58373EE
:1018CD000218E20218E70218EC0218F10218F602EB
:1018DD0018FB021900751402801C7514048017750D
:1018ED0014088012751410800D751420800875145D
:1018FD00408003751480AD13AF0E121C35850E1587
:10190D00E50F2401FFE433FEC3E5159FEE6480F877
:10191D007480985016AF12AE11121DD6AF147E0002
:0B192D007D017C00121D0C051580D50B
:01193800228C
:0419C500AF0FAD11A2
:1019C900ED5407FE700DED131313541FF51C751D0F
:1019D900018053ED131313541FF51CEE14B40700C3
:1019E90050449019F975F003A4C58325F0C5837394
:1019F900021A0E021A13021A18021A1D021A2202D8
:101A09001A27021A2C751D02801C751D0480177572
:101A19001D088012751D10800D751D208008751D0B
:101A2900408003751D80AD1C121C35AF1D7E007DE5
:061A3900017C00021D0CFF
:0C1129008E0E8F0F8C108D118A128B130C
:10113500C3E513950FF517E512950EF516C3E515DD
:101145009511F519E5149510F518C3E51664809405
:10115500805003021322E518648094805003021224
:101165003EE5179519E5186480F8E5166480984002
:1011750064AE16AF177C007D021210E5C3E5199F1A
:10118500F51BE5189EF51AD3E50F9513E512648056
:10119500F8E50E64809840030214F21219C5D3E5F0
:1011A5001B9400E51A6480948040140511E51170C4
:1011B500020510E51B9517F51BE51A9516F51A0599
:1011C5000FE50F7002050EE519251BF51BE5183512
:1011D5001AF51A80B2AE18AF197C007D021210E51F
:1011E500C3E5179FF51BE5169EF51AD3E511951571
:1011F500E5146480F8E51064809840030214F21247
:1012050019C5D3E51B9400E51A6480948040140544
:101215000FE50F7002050EE51B9519F51BE51A95EF
:1012250018F51A0511E51170020510E517251BF5CE
:101235001BE516351AF51A80B2C3E49519F519E4BC
:101245009518F518C3E5179519E5186480F8E5169E
:101255006480984064AE16AF177C007D021210E5DD
:10126500C3E5199FF51BE5189EF51AD3E50F9513F0
:10127500E5126480F8E50E64809840030214F212CA
:1012850019C5D3E51B9400E51A648094804014E5E4
:1012950011151170021510E51B9517F51BE51A952B
:1012A50016F51A050FE50F7002050EE519251BF554
:1012B5001BE518351AF51A80B2AE18AF197C007DFA
:1012C500021210E5C3E5179FF51BE5169EF51AC337
:1012D500E5119515E5146480F8E5106480985003D0
:1012E5000214F21219C5D3E51B9400E51A64809423
:1012F500804014050FE50F7002050EE51B9519F5E5
:101305001BE51A9518F51AE511151170021510E56A
:1013150017251BF51BE516351AF51A80B2C3E4959A
:1013250017F517E49516F516C3E5186480948050F3
:1013350003021411E5179519E5186480F8E516649C
:1013450080984064AE16AF177C007D021210E5C38D
:10135500E5199FF51BE5189EF51AC3E50F9513E5ED
:10136500126480F8E50E64809850030214F2121995
:10137500C5D3E51B9400E51A6480948040140511DB
:10138500E51170020510E51B9517F51BE51A951675
:10139500F51AE50F150F7002150EE519251BF51B3E
:1013A500E518351AF51A80B2AE18AF197C007D0222
:1013B5001210E5C3E5179FF51BE5169EF51AD3E553
:1013C500119515E5146480F8E510648098400302D2
:1013D50014F21219C5D3E51B9400E51A64809480B4
:1013E5004014E50F150F7002150EE51B9519F51B39
:1013F500E51A9518F51A0511E51170020510E5179E
:10140500251BF51BE516351AF51A80B2C3E49519A7
:10141500F519E49518F518C3E5179519E5186480CD
:10142500F8E5166480984064AE16AF177C007D021F
:101435001210E5C3E5199FF51BE5189EF51AC3E5DE
:101445000F9513E5126480F8E50E64809850030249
:1014550014F21219C5D3E51B9400E51A6480948033
:101465004014E511151170021510E51B9517F51BB4
:10147500E51A9516F51AE50F150F7002150EE51903
:10148500251BF51BE518351AF51A80B2AE18AF19EC
:101495007C007D021210E5C3E5179FF51BE5169E3E
:1014A500F51AC3E5119515E5146480F8E510648017
:1014B50098403A1219C5D3E51B9400E51A64809447
:1014C500804014E50F150F7002150EE51B9519F5F3
:1014D5001BE51A9518F51AE511151170021510E599
:0D14E50017251BF51BE516351AF51A80B505
:0114F20022D7
:0417EB008F0E8D0FC1
:1017EF00EBC313F404F512E4F5108B11E511C39557
:1017FF00105003021898E50E251014FFE50F251160
:10180F0014FD1219C9E50E251114FFE50F2510144B
:10181F00FD1219C9C3E50E9510FFE50F251114FD33
:10182F001219C9C3E50E9511FFE50F251014FD120E
:10183F0019C9C3E50E9510FFC3E50F9511FD1219D8
:10184F00C9C3E50E9511FFC3E50F9510FD1219C918
:10185F00E50E251014FFC3E50F9511FD1219C9E50B
:10186F000E251114FFC3E50F9510FD1219C90510B0
:10187F00E512C394005004E51080071511C3E5105D
:09188F0095112512F5120217FB58
:01189800222D
:101D1D00D3EF9400EE940040147D657C18ED1D709A
:0D1D2D00011CED4C70F7EF1F70E61E80E307
:011D3A002286
:101DD600EF1FAA0670011E4A600BE4FDEDC3947B5B
:051DE60050EE0D80F736
:011DEB0022D5
:101C3500A907ED24B0FFE433FEE4FDFC121D0CE919
:101C450054F0C4540F7E004410FFE4FDFC121D0C3B
:0C1C5500E9540FFF7E00E4FDFC021D0CB2
:101C6100E4F9E924B0FFE433FEE4FDFC121CFBE4DB
:101C7100F50E7D017C00E4FFFE121D0C050EE50E44
:091C8100C3948040ED09B908D9B3
:011C8A002237
:04172D008F178D186D
:10173100E4F51BF9EB24E0F51BE517D3947F400793
:10174100E4F51705180518E51A64107069AD18AFAE
:1017510017121C35E4F975F010E51BA429F582E494
:1017610035F0F583E582244EF582E5833402F58375
:10177100E493FF7E007D017C00121D0C09B908D69F
:10178100E51804FDAF17121C35E4F975F010E51BDF
:10179100A429F582E435F0F583E5822456F582E546
:1017A100833402F583E493FF7E007D017C00121DEA
:1017B1000C09B908D622AD18AF17121C35E4F9751A
:1017C100F006E51BA42426F582E5F03400F583E557
:1017D1008229F582E43583F583E493FF7E007D0160
:0917E1007C00121D0C09B906D6AA
:0117EA0022DC
:0A1B17008F0E8D0F8B108A118912BA
:101B2100E4F514AB10AA11A9128514827583001271
:101B31001051FB602085131AAD0FAF0E12172D74D3
:101B410008250EF50ED394784007E4F50E050F0530
:051B51000F051480CE19
:011B5600226C
:041D90008F17A905FB
:101D94007F017E00AD0119ED6009AD177C001210C2
:031DA4007E80F14D
:011DA7002219
:081A3F008F0E8D0F8A108B1130
:101A4700E4F516F514E514C395125065C3E5129530
:101A57001414FD7F0A121D90AC10AD11CFCDCFCE5F
:101A6700CCCE1210907C007D0A1210908D15E516D1
:101A77007023E51214FFE514C39F5019E515701282
:101A8700E513C3138514F0A4250EFF85131A7B20D5
:101A97008016751601E513C3138514F0A4250EFFF0
:101AA700E5152430FB85131AAD0F12172D05148089
:011AB700949A
:011AB800220B
:10165100E4FDFC7FAEFE121CFB7F40121D08E4FD81
:10166100FC7FB0FE121D0CE4FDFC7F81FE121D0CFF
:10167100E4FDFC7FFFFE121D0CE4FDFC7FA1FE12C8
:101681001D0CE4FDFC7FA6FE121D0CE4FDFC7FA8F1
:10169100FE121D0CE4FDFC7F3FFE121D0CE4FDFC5F
:1016A1007FC8FE121D0CE4FDFC7FD3FE121D0CE46D
:1016B100FDFCFFFE121D0CE4FDFC7FD5FE121D0C8E
:1016C100E4FDFC7F80FE121D0CE4FDFC7FD8FE12C0
:1016D1001D0CE4FDFC7F05FE121D0CE4FDFC7FD911
:1016E100FE121D0CE4FDFC7FF1FE121D0CE4FDFC5D
:1016F1007FDAFE121D0CE4FDFC7F12FE121D0CE4CC
:10170100FDFC7FDBFE121D0CE4FDFC7F30FE121D93
:101711000CE4FDFC7F8DFE121D0CE4FDFC7F14FE2C
:0C172100121D0CE4FDFC7FAFFE021D0C4D
:061E5100C2B48F90D2B56F
:081E57007F027EEFDEFEDFFCDE
:011E5F002260
:0A1E7C00C2B3121E51C2B5021E5778
:0A1E8600D2B3121E51C2B5021E575E
:101DEC00AE07BE0104ED148006BE0209ED243F448B
:061DFC0080FF121E7C2294
:101E2D007F38121E7C7F0C121E7C7F06121E7C7F5B
:041E3D0001021E7C04
:0A1E9000AC03121DECAF04021E8625
:061CD8008B0E8A0F89103B
:101CDE00121DECE4FDAB0EAA0FA9108D82758300C8
:0C1CEE00121051FF6006121E860D80E9E6
:011CFA0022C7
:081C8B008E138F148C158D16C9
:101C93007F017E00E4FBEBC39516E5156480F874C1
:0E1CA3008098500AAC13AD1412107E0B80E82E
:011CB1002210
:041B57008A108B1154
:101B5B00121DECAA12EAD39400402DEA24FFFDE4F7
:101B6B0034FFFC7F0A7E00121C8BAC10AD11CFCD65
:101B7B00CFCECCCE1210907C007D0A121090ED24AB
:081B8B0030FF121E861A80CD06
:011B9300222F
:101D5900D2B70000000000D2B60000000000C2B7F0
:0D1D69000000000000C2B6000000000022D3
:101DA800C2B60000000000C2B70000000000D2B6B2
:081DB8000000000000D2B72278
:10000300200704C2B78002D2B700D2B600000000B6
:0F00130000000000C2B600000000000000002244
:101D3B00D2B7D200D2B60000000000000000A2B75C
:0E1D4B00920000C2B60000000000000000225E
:101C07007E0AAD07E4FCED30E704D2078002C20785
:101C1700120003ED25E0FD0CBC08EB121D3B300064
:0D1C27000C121DA8EE60061E121D5980D57E
:011C3400228D
:101E0200E4FFFEEF25E0FF121D3B3000010F0EBE86
:051E120008F1120003BD
:011E170022A8
:101AB900121D59E4FF121C077F07121C07121D593A
:101AC9007F01121C07C207121E028F5CC207121E79
:101AD900028F5BD207121E028F5D121DA8E55BFE05
:101AE9007C00E4255CFDEC3EFCE4120F977B0A7A4E
:101AF900D779A3783C120DEC7B337A93798878C334
:0D1B0900120CFBE4FBFA79C87842120DECD7
:011B160022AC
:100CF40002103CE86480F8E933E83360110460F0E2
:100D0400ED33EC337009E8FCE9FDEAFEEBFF220465
:100D140060DED3EB9FEA9EE99DE8C2E78CF0C2F760
:100D240095F0400CE8CCF8E9CDF9EACEFAEBCFFB2C
:100D340012100785D0F05804700320D5B3E804706E
:100D4400075002B2D502104692D5EC0460F7E4CC09
:100D5400C0E0C398F8603B94186008400DD0E0FBF5
:100D640002101EE4FBFAC9FC8028E830E406E4C95A
:100D7400FBE4CAFCE830E305E4C9CACBFCE8540749
:100D84006010F8C3E913F9EA13FAEB13FBEC13FC54
:100D9400D8F130F52FC3E49CFCEF9BFFEE9AFEEDF7
:100DA40099FDD0E0FBEF4E4D4C701222DB03021094
:100DB40043EC2CFCEF33FFEE33FEED33FDED30E777
:100DC400EB02101EEF2BFFEE3AFEED39FDD0E0FBF7
:100DD40050130BBB0003021046ED13FDEE13FEEFA0
:080DE40013FFEC13FC02101ECA
:100DEC00EC4D6011E8497017ED33EC3304600DE401
:100DFC00FCFFFEFD22E933E8330470F802103C12CC
:100E0C00100758046009E4CC2481500628500902CC
:100E1C001046284003021043C0E0EB4A7044B980EE
:100E2C0006D0E0FB021032EF4E701CBD8008EBFFC9
:100E3C00EAFEE9FD80EBE98DF0A4FEE5F0020ED5AB
:100E4C00E9CDF9EAFEEBFFEF89F0A4FCE5F0CE89E1
:100E5C00F0A42EFFE435F0CD89F0A42DFEE435F09E
:100E6C008067EF4E7005BD80D780C3EF8BF0A4ACCC
:100E7C00F0EE8BF0A42CFCE435F0F8EF8AF0A42C07
:100E8C00E5F038FCE433CB8DF0A42CFCE5F03BF81A
:100E9C00EE8AF0A42CFCE5F038F8E433CF89F0A40A
:100EAC002CFCE5F038CF3400CE89F0A42FFFE5F010
:100EBC003EFEE433C98DF0A42EFEE5F039CD8AF068
:100ECC00A42FFFE5F03EFEE43DFD33D0E0FB5007E0
:100EDC000BBB000F021046EC2CFCEF33FFEE33FE85
:060EEC00ED33FD02101EB3
:100EF200021046EC5D046005E85904700302103CE0
:100F0200121007580460F6EC4860F2EC7004FDFE23
:100F1200FF22C860DB2481C85009C39860025006D2
:100F22000210439850CAF582E9294B4A7005AB82F8
:100F320002103275F0007C1A7880C3EF9BEE9AEDB6
:100F420099400DC3EF9BFFEE9AFEED99FDE842F04A
:100F5200DC23ACF0D0E0FFD0E0FED0E0FDAB82209D
:100F6200E7101BEB60BAEC2CFCEF33FFEE33FEED27
:100F720033FD02101EE803F830E705C0F075F000FB
:100F8200EF2FFFEE33FEED33FD40B830E7C280AA0B
:100F920075F020800E75F010800575F0087D007EDA
:100FA200007F003392D530D50312111BEC33401071
:100FB200EF33FFEE33FEED33FDEC33FCD5F0ED22E3
:0E0FC200E5F0247EA2D513CC92E7CDCEFF221F
:100FD000EDD2E7CD33EC3392D524814006E4FFFE19
:100FE000FDFC22FCE4CFCECDCC24E0501174FF8078
:100FF000EDC3CC13CCCD13CDCE13CECF13CF047015
:07100000F030D5DE02111BE8
:10100700E9D2E7C933E833F892D5EDD2E7CD33EC2F
:0710170033FC5002B2D522A8
:10101E00EC30E7100FBF000C0EBE00080DBD000433
:10102E000BEB6014A2D5EB13FCED92E7FD2274FFDF
:10103E00FCFDFEFF22E480F8A2D574FF13FC7D8038
:03104E00E480EF4C
:03000000021939A9
:0C193900787FE4F6D8FD75815D0219800E
:10105100BB010CE58229F582E5833AF583E0225054
:1010610006E92582F8E622BBFE06E92582F8E2229E
:0D107100E58229F582E5833AF583E49322B8
:10107E00EF8DF0A4A8F0CF8CF0A428CE8DF0A42E86
:02108E00FE2240
:10109000BC000BBE0029EF8DF084FFADF022E4CC44
:1010A000F875F008EF2FFFEE33FEEC33FCEE9DEC0D
:1010B000984005FCEE9DFE0FD5F0E9E4CEFD22ED53
:1010C000F8F5F0EE8420D21CFEADF075F008EF2F9D
:1010D000FFED33FD4007985006D5F0F222C398FD8E
:0510E0000FD5F0EA222B
:1010E500C2D5EC30E709B2D5E4C39DFDE49CFCEE26
:1010F50030E715B2D5E4C39FFFE49EFE121090C3FE
:10110500E49DFDE49CFC800312109030D507C3E4F8
:061115009FFFE49EFE2294
:0E111B00C3E49FFFE49EFEE49DFDE49CFC22E5
:1019450002087EE493A3F8E493A34003F68001F232
:1019550008DFF48029E493A3F85407240CC8C333A3
:10196500C4540F4420C8834004F456800146F6DF72
:10197500E4800B0102040810204080901B94E47E53
:10198500019360BCA3FF543F30E509541FFEE49367
:10199500A360010ECF54C025E060A840B8E493A32E
:1019A500FAE493A3F8E493A3C8C582C8CAC583CA59
:1019B500F0A3C8C582C8CAC583CADFE9DEE780BE11
:011BCD000017
:00000001FF
