:0F0C0600416D6269656E743A00424F64793A003D
:020C3800C108F1
:1006A100120BDE7BFF7A0C79067D017F01120AE5D0
:1006B1007BFF7A0C790F7D017F02120AE512092B6B
:1006C1008F0F8E0E8D0D8C0C1208B58F0B8E0A8D2F
:1006D100098C08AF0FAE0EAD0DAC0C1207798F1F50
:1006E1008E1E8D1D8C1CAB1FAA1EA91DA81CAF0F31
:1006F100AE0EAD0DAC0C120006E4FBFA79C87842DF
:100701001200FB8F178E168D158C14AF0BAE0AAD30
:1007110009AC081207798F1B8E1A8D198C18AB1B27
:10072100AA1AA919A818AF0BAE0AAD09AC08120094
:1007310006E4FBFA79C878421200FB8F138E128D02
:10074100118C10AF1FAE1EAD1DAC1C120358AB07B0
:10075100AA06753E027D097F01120B63AF17AE1623
:10076100AD15AC14120358AB07AA06753E027D0CF9
:080771007F01120B630206BEBA
:060C1500C2B48F90D2B5BD
:080C1B007F027EEFDEFEDFFC2C
:010C230022AE
:0A0C2400C2B3120C15C2B5020C1B7E
:100B2700CFCDCFCECCCE1204187C007D0A1204188C
:040B3700ED2430FF7A
:0A0B3B00D2B3120C15C2B5020C1B58
:100B9D00AE07BE0104ED148006BE0209ED243F44EC
:060BAD0080FF120C24225F
:100BDE007F38120C247F0C120C247F06120C247FFB
:040BEE0001020C24D0
:0A0C2E00AC03120B9DAF04020B3B58
:060AE5008B3A8A3B893CBC
:100AEB00120B9DE4FDAB3AAA3BA93C8D82758300AA
:0C0AFB001203D9FF6006120B3B0D80E9CE
:010B070022CB
:0C0A84007F0AEA24FFFDE434FFFC7E0042
:080A90008E3F8F408C418D4226
:100A98007F017E00E4FBEBC39542E5416480F87476
:0E0AA8008098500AAC3FAD401204060B80E867
:010AB600221D
:040B63008A3C8B3D00
:100B6700120B9DAA3EEAD39400400D120A84AC3CB6
:080B7700AD3D120B271A80EDC1
:010B7F002253
:1009A100120B9DC3EA64809480400B7F2B120B3B9A
:1009B1008A488B49800E7F2D120B3BC3E49BF5497E
:1009C100E49AF548AA47EAD39400400D120A84AC90
:0909D10048AD49120B271A80ED14
:0109DA0022FA
:0409DB008A4C8B4D6A
:1009DF00120B9DAA4EEAD3940040297F10120A866B
:1009EF00AC4CAD4DCFCDCFCECCCE120418EF540FB3
:1009FF00FEC3940AEE5004243080022437FF120BFA
:040A0F003B1A80D13D
:010A130022C0
:040A14008A518B5226
:100A1800120B9DAA53EAD394004028EA24FFFDE470
:100A280034FFFC7F027E00120A90AC51AD52CFCD4C
:100A3800CFCECCCE120418EF54012430FF120B3B5A
:030A48001A80D23F
:010A4B002288
:100BF200D2B6D2B700000000C2B67FE87E03120B65
:040C0200C9D2B6227B
:100B8000D2B70000000000D2B60000000000C2B7DB
:0D0B90000000000000C2B6000000000022BE
:100A4C00120AB7120B807F01120AB7C207120BB33E
:100A5C008F55C207120BB38F54D207120BB38F569C
:100A6C00C2B60000000000C2B70000000000D2B601
:080A7C000000000000D2B722C7
:100B0800200704C2B78002D2B700D2B600000000A6
:0F0B180000000000C2B600000000000000002234
:100B4500D2B7D200D2B60000000000000000A2B764
:0E0B5500920000C2B600000000000000002266
:100AB7007E0AAD07E4FCED30E704D2078002C207E7
:100AC700120B08ED25E0FD0CBC08EB120B453000BE
:0D0AD7000C120A6CEE60061E120B8080D51A
:010AE40022EF
:100BB300E4FFFEEF25E0FF120B453000010F0EBEF0
:050BC30008F1120B080F
:010BC800220A
:1008B500120B80E4FF120AB77F06120A4CE554FEBC
:1008C5007C00E42555FDEC3EFCE412031F7B0A7A0F
:1008D500D779A3783C1200FB7B337A93798878C368
:1008E50012000A8F3D8E3C8D3B8C3A7F0A7ED77D68
:1008F500A37C3BAB3DAA3CA93BA83A12000AE4FB0A
:10090500FA79C878421200FB120358AD07AC06EC21
:1009150012031FE4FBFA79C878421202048F3D8E58
:050925003C8D3B8C3A03
:01092A0022AA
:10092B00120B80E4FF120AB77F07120A4CE554FE44
:10093B007C00E42555FDEC3EFCE412031F7B0A7A98
:10094B00D779A3783C1200FB7B337A93798878C3F1
:10095B0012000A8F3D8E3C8D3B8C3A7F0A7ED77DF1
:10096B00A37C3BAB3DAA3CA93BA83A12000AE4FB93
:10097B00FA79C878421200FB120358AD07AC06ECAB
:10098B0012031FE4FBFA79C878421202048F3D8EE2
:05099B003C8D3B8C3A8D
:0109A0002234
:10048C001208B58F258E248D238C2212092B8F29CF
:10049C008E288D278C26E4F531F530F52FF52EF5C9
:1004AC0035F534F533F532F539F5387537C8753619
:1004BC0041AF39AE38AD37AC36AB25AA24A923A849
:1004CC00221202A1AB39AA38A937A836AF25AE241F
:1004DC00AD23AC226002503E1200067BC97A7679BD
:1004EC003E783E1200FB7BD77AA379027842120049
:1004FC000A8F2D8E2C8D2B8C2AAB39AA38A937A8B4
:10050C0036AF25AE24AD23AC221200067B507A8D7B
:10051C007917783E803C1200067BC57A2079B0783A
:10052C003D1200FB7BD77AA37902784212000A8F26
:10053C002D8E2C8D2B8C2AAB39AA38A937A836AF27
:10054C0025AE24AD23AC221200067BCD7ACC79CC1F
:10055C00783D1200FB7B297A5C790B784212000AF9
:10056C008F318E308D2F8C2EAF29AE28AD27AC2637
:10057C00AB2DAA2CA92BA82A1202A16002503EAFC7
:10058C0031AE30AD2FAC2EAB29AA28A927A8261244
:10059C0002A160025027AB2DAA2CA92BA82AAF319F
:1005AC00AE30AD2FAC2E120006A804A905AA06ABDE
:1005BC0007E4FFFEFD7C3F12020402065FAF31AE82
:1005CC0030AD2FAC2EAB29AA28A927A8261202A140
:1005DC00604E404C7F577EED7D1A7C3BAB25AA24A8
:1005EC00A923A8221200FB7B627A4E7954783F1221
:1005FC00000AC004C005C006C007AB31AA30A92F41
:10060C00A82EAF29AE28AD27AC26120006D003D0F9
:10061C0002D001D0001200FB7B337A337913805F58
:10062C00AF2DAE2CAD2BAC2AAB29AA28A927A82616
:10063C001202A150577F327E557DB07C3CAB25AA6F
:10064C0024A923A8221200FB7B757A39790D783FF7
:10065C0012000AC004C005C006C007AB2DAA2CA905
:10066C002BA82AAF29AE28AD27AC26120006D00342
:10067C00D002D001D0001200FB7B337A3379117891
:10068C004212000A8F358E348D338C32AF35AE3436
:04069C00AD33AC329C
:0106A0002237
:100BC900EF1FAC0670011E4C600A7D027CEFDCFE53
:040BD900DDFC80ECD3
:010BDD0022F5
:100003000203C4E86480F8E933E83360110460F064
:10001300ED33EC337009E8FCE9FDEAFEEBFF220463
:1000230060DED3EB9FEA9EE99DE8C2E78CF0C2F75E
:1000330095F0400CE8CCF8E9CDF9EACEFAEBCFFB2A
:1000430012038F85D0F05804700320D5B3E80470F1
:10005300075002B2D50203CE92D5EC0460F7E4CC8C
:10006300C0E0C398F8603B94186008400DD0E0FBF3
:100073000203A6E4FBFAC9FC8028E830E406E4C9DD
:10008300FBE4CAFCE830E305E4C9CACBFCE8540747
:100093006010F8C3E913F9EA13FAEB13FBEC13FC52
:1000A300D8F130F52FC3E49CFCEF9BFFEE9AFEEDF5
:1000B30099FDD0E0FBEF4E4D4C701222DB0302039F
:1000C300CBEC2CFCEF33FFEE33FEED33FDED30E7ED
:1000D300EB0203A6EF2BFFEE3AFEED39FDD0E0FB7A
:1000E30050130BBB00030203CEED13FDEE13FEEF23
:0800F30013FFEC13FC0203A64D
:1000FB00EC4D6011E8497017ED33EC3304600DE4FF
:10010B00FCFFFEFD22E933E8330470F80203C4124E
:10011B00038F58046009E4CC24815006285009024F
:10012B0003CE2840030203CBC0E0EB4A7044B980F6
:10013B0006D0E0FB0203BAEF4E701CBD8008EBFF4C
:10014B00EAFEE9FD80EBE98DF0A4FEE5F00201E4A7
:10015B00E9CDF9EAFEEBFFEF89F0A4FCE5F0CE89DF
:10016B00F0A42EFFE435F0CD89F0A42DFEE435F09C
:10017B008067EF4E7005BD80D780C3EF8BF0A4ACCA
:10018B00F0EE8BF0A42CFCE435F0F8EF8AF0A42C05
:10019B00E5F038FCE433CB8DF0A42CFCE5F03BF818
:1001AB00EE8AF0A42CFCE5F038F8E433CF89F0A408
:1001BB002CFCE5F038CF3400CE89F0A42FFFE5F00E
:1001CB003EFEE433C98DF0A42EFEE5F039CD8AF066
:1001DB00A42FFFE5F03EFEE43DFD33D0E0FB5007DE
:1001EB000BBB000F0203CEEC2CFCEF33FFEE33FE08
:0601FB00ED33FD0203A636
:100201000203CEEC5D046005E8590470030203C4E7
:1002110012038F580460F6EC4860F2EC7004FDFEA6
:10022100FF22C860DB2481C85009C39860025006D0
:100231000203CB9850CAF582E9294B4A7005AB827B
:100241000203BA75F0007C1A7880C3EF9BEE9AED39
:1002510099400DC3EF9BFFEE9AFEED99FDE842F048
:10026100DC23ACF0D0E0FFD0E0FED0E0FDAB82209B
:10027100E7101BEB60BAEC2CFCEF33FFEE33FEED25
:1002810033FD0203A6E803F830E705C0F075F0007E
:10029100EF2FFFEE33FEED33FD40B830E7C280AA09
:1002A10074F8CC6480CCC86480C8F58204604FC304
:1002B100EB9FF5F0EA9E42F0E99D42F0E89C45F0A3
:1002C100603C501DE5825FFFE582D313CB5BCBF42D
:1002D1002B5582FB50280ABA002409B90020088056
:1002E1001DE5825BFBE582D313CF5FCFF4C3132FF0
:1002F1005582FF50090EBE00050DBD00010CC3EB78
:100301009FF5F0EA9E42F0E99D42F0E89C45F060DD
:0903110007CC4820E701B3EC22FF
:10031A0075F020800E75F010800575F0087D007E5E
:10032A00007F003392D530D50312046DEC334010B0
:10033A00EF33FFEE33FEED33FDEC33FCD5F0ED2267
:0E034A00E5F0247EA2D513CC92E7CDCEFF22A3
:10035800EDD2E7CD33EC3392D524814006E4FFFE9D
:10036800FDFC22FCE4CFCECDCC24E0501174FF80FC
:10037800EDC3CC13CCCD13CDCE13CECF13CF047099
:07038800F030D5DE02046D28
:100779008F3D8E3C8D3B8C3A74FFFFFEFDFCAB3DFB
:10078900AA3CA93BA83AC312047B602C7F807E96C1
:100799007D187C4BAB3DAA3CA93BA83A1202A1604B
:1007A9000250157F807E967D187CCBAB3DAA3CA973
:1007B9003BA83A1202A15009AF3DAE3CAD3BAC3A61
:1007C90022AF3DAE3CAD3BAC3A1203588F418E404F
:1007D9008D3F8C3EEC12031AC8ECC8C9EDC9CAEEAC
:1007E900CACBEFCBAF3DAE3CAD3BAC3A120006E411
:1007F900FBFAF9F81202A1601A401874FF2541F5B5
:1008090041E54034FFF540E53F34FFF53FE53E342F
:10081900FFF53EAF41AE40AD3FAC3EEC12031A22AC
:10038F00E9D2E7C933E833F892D5EDD2E7CD33ECB4
:07039F0033FC5002B2D5222D
:1003A600EC30E7100FBF000C0EBE00080DBD0004B8
:1003B6000BEB6014A2D5EB13FCED92E7FD2274FF64
:1003C600FCFDFEFF22E480F8A2D574FF13FC7D80BD
:0303D600E480EFD1
:03000000020829CA
:0C082900787FE4F6D8FD75815602087057
:1003D900BB010CE58229F582E5833AF583E02250D9
:1003E90006E92582F8E622BBFE06E92582F8E22223
:0D03F900E58229F582E5833AF583E493223D
:10040600EF8DF0A4A8F0CF8CF0A428CE8DF0A42E0A
:02041600FE22C4
:10041800BC000BBE0029EF8DF084FFADF022E4CCC8
:10042800F875F008EF2FFFEE33FEEC33FCEE9DEC91
:10043800984005FCEE9DFE0FD5F0E9E4CEFD22EDD7
:10044800F8F5F0EE8420D21CFEADF075F008EF2F21
:10045800FFED33FD4007985006D5F0F222C398FD12
:050468000FD5F0EA22AF
:0E046D00C3E49FFFE49EFEE49DFDE49CFC22A0
:10047B00EB9FF5F0EA9E42F0E99D42F0E89C45F0D7
:01048B00224E
:100835000206A1E493A3F8E493A34003F68001F232
:1008450008DFF48029E493A3F85407240CC8C333C4
:10085500C4540F4420C8834004F456800146F6DF93
:10086500E4800B0102040810204080900C38E47EDF
:10087500019360BCA3FF543F30E509541FFEE49388
:10088500A360010ECF54C025E060A840B8E493A34F
:10089500FAE493A3F8E493A3C8C582C8CAC583CA7A
:1008A500F0A3C8C582C8CAC583CADFE9DEE780BE32
:010C3A0000B9
:00000001FF
